{
  "contractName": "Coinflip",
  "abi": [
    {
      "inputs": [],
      "payable": true,
      "stateMutability": "payable",
      "type": "constructor"
    },
    {
      "anonymous": false,
      "inputs": [
        {
          "indexed": true,
          "internalType": "address",
          "name": "_from",
          "type": "address"
        },
        {
          "indexed": false,
          "internalType": "uint256",
          "name": "_value",
          "type": "uint256"
        }
      ],
      "name": "ownerWithdrawAll",
      "type": "event"
    },
    {
      "anonymous": false,
      "inputs": [
        {
          "indexed": true,
          "internalType": "address",
          "name": "_from",
          "type": "address"
        },
        {
          "indexed": false,
          "internalType": "uint256",
          "name": "_value",
          "type": "uint256"
        }
      ],
      "name": "userWin",
      "type": "event"
    },
    {
      "anonymous": false,
      "inputs": [
        {
          "indexed": true,
          "internalType": "address",
          "name": "_from",
          "type": "address"
        },
        {
          "indexed": false,
          "internalType": "uint256",
          "name": "_value",
          "type": "uint256"
        }
      ],
      "name": "userWithdrawal",
      "type": "event"
    },
    {
      "constant": true,
      "inputs": [],
      "name": "contractBalance",
      "outputs": [
        {
          "internalType": "uint256",
          "name": "",
          "type": "uint256"
        }
      ],
      "payable": false,
      "stateMutability": "view",
      "type": "function"
    },
    {
      "constant": true,
      "inputs": [],
      "name": "owner",
      "outputs": [
        {
          "internalType": "address payable",
          "name": "",
          "type": "address"
        }
      ],
      "payable": false,
      "stateMutability": "view",
      "type": "function"
    },
    {
      "constant": true,
      "inputs": [
        {
          "internalType": "address",
          "name": "",
          "type": "address"
        }
      ],
      "name": "playerWinnings",
      "outputs": [
        {
          "internalType": "uint256",
          "name": "",
          "type": "uint256"
        }
      ],
      "payable": false,
      "stateMutability": "view",
      "type": "function"
    },
    {
      "constant": false,
      "inputs": [
        {
          "internalType": "uint256",
          "name": "headsTails",
          "type": "uint256"
        }
      ],
      "name": "flip",
      "outputs": [],
      "payable": true,
      "stateMutability": "payable",
      "type": "function"
    },
    {
      "constant": false,
      "inputs": [],
      "name": "withdrawAll",
      "outputs": [],
      "payable": false,
      "stateMutability": "nonpayable",
      "type": "function"
    },
    {
      "constant": false,
      "inputs": [],
      "name": "withdrawWinnings",
      "outputs": [],
      "payable": false,
      "stateMutability": "nonpayable",
      "type": "function"
    },
    {
      "constant": true,
      "inputs": [],
      "name": "winningsBalance",
      "outputs": [
        {
          "internalType": "uint256",
          "name": "",
          "type": "uint256"
        }
      ],
      "payable": false,
      "stateMutability": "view",
      "type": "function"
    },
    {
      "constant": false,
      "inputs": [],
      "name": "addFunds",
      "outputs": [],
      "payable": true,
      "stateMutability": "payable",
      "type": "function"
    },
    {
      "constant": false,
      "inputs": [],
      "name": "fundWinnings",
      "outputs": [],
      "payable": true,
      "stateMutability": "payable",
      "type": "function"
    }
  ],
  "bytecode": "0x608060405233600160006101000a81548173ffffffffffffffffffffffffffffffffffffffff021916908373ffffffffffffffffffffffffffffffffffffffff160217905550600160009054906101000a900473ffffffffffffffffffffffffffffffffffffffff1673ffffffffffffffffffffffffffffffffffffffff163373ffffffffffffffffffffffffffffffffffffffff161461009f57600080fd5b33600160006101000a81548173ffffffffffffffffffffffffffffffffffffffff021916908373ffffffffffffffffffffffffffffffffffffffff160217905550346002819055506109ed806100f66000396000f3fe6080604052600436106100865760003560e01c80638da5cb5b116100595780638da5cb5b14610160578063a26759cb146101b7578063a5ce8496146101c1578063c8a57f06146101cb578063cc42e83a146101f657610086565b8063221e885d1461008b578063252f4d81146100b9578063853828b61461011e5780638b7afe2e14610135575b600080fd5b6100b7600480360360208110156100a157600080fd5b810190808035906020019092919050505061020d565b005b3480156100c557600080fd5b50610108600480360360208110156100dc57600080fd5b81019080803573ffffffffffffffffffffffffffffffffffffffff169060200190929190505050610446565b6040518082815260200191505060405180910390f35b34801561012a57600080fd5b5061013361045e565b005b34801561014157600080fd5b5061014a6106bc565b6040518082815260200191505060405180910390f35b34801561016c57600080fd5b506101756106c2565b604051808273ffffffffffffffffffffffffffffffffffffffff1673ffffffffffffffffffffffffffffffffffffffff16815260200191505060405180910390f35b6101bf6106e8565b005b6101c9610754565b005b3480156101d757600080fd5b506101e06107a2565b6040518082815260200191505060405180910390f35b34801561020257600080fd5b5061020b6107e8565b005b600081148061021c5750600181145b61028e576040517f08c379a000000000000000000000000000000000000000000000000000000000815260040180806020018281038252601c8152602001807f506c656173652063686f6f7365206865616473206f72207461696c730000000081525060200191505060405180910390fd5b66038d7ea4c6800034101580156102ad5750678ac7230489e800003411155b610302576040517f08c379a00000000000000000000000000000000000000000000000000000000081526004018080602001828103825260248152602001806109656024913960400191505060405180910390fd5b600254341061035c576040517f08c379a00000000000000000000000000000000000000000000000000000000081526004018080602001828103825260308152602001806109896030913960400191505060405180910390fd5b6000600234029050600061036e610952565b9050610378610952565b50808314156104305734600260008282540392505081905550816000803373ffffffffffffffffffffffffffffffffffffffff1673ffffffffffffffffffffffffffffffffffffffff168152602001908152602001600020600082825401925050819055503373ffffffffffffffffffffffffffffffffffffffff167f06e06cbd7730480712559b7336c3a263e2c42312891bd60dc7b4bdfdfa26d502836040518082815260200191505060405180910390a2610441565b346002600082825401925050819055505b505050565b60006020528060005260406000206000915090505481565b600160009054906101000a900473ffffffffffffffffffffffffffffffffffffffff1673ffffffffffffffffffffffffffffffffffffffff163373ffffffffffffffffffffffffffffffffffffffff16146104b857600080fd5b600160009054906101000a900473ffffffffffffffffffffffffffffffffffffffff1673ffffffffffffffffffffffffffffffffffffffff163373ffffffffffffffffffffffffffffffffffffffff161461057b576040517f08c379a000000000000000000000000000000000000000000000000000000000815260040180806020018281038252601e8152602001807f4e696365207472792c20796f75277265206e6f7420746865206f776e6572000081525060200191505060405180910390fd5b6000600254116105f3576040517f08c379a00000000000000000000000000000000000000000000000000000000081526004018080602001828103825260138152602001807f4e6f7468696e6720746f2077697468647261770000000000000000000000000081525060200191505060405180910390fd5b600060025490506000600281905550600160009054906101000a900473ffffffffffffffffffffffffffffffffffffffff1673ffffffffffffffffffffffffffffffffffffffff166108fc829081150290604051600060405180830381858888f1935050505015801561066a573d6000803e3d6000fd5b503373ffffffffffffffffffffffffffffffffffffffff167f53a58c5d23ca7f6e9c306451e096647aed234d4c51ab168c73d670212d124a04826040518082815260200191505060405180910390a250565b60025481565b600160009054906101000a900473ffffffffffffffffffffffffffffffffffffffff1681565b600160009054906101000a900473ffffffffffffffffffffffffffffffffffffffff1673ffffffffffffffffffffffffffffffffffffffff163373ffffffffffffffffffffffffffffffffffffffff161461074257600080fd5b34600260008282540192505081905550565b346000803373ffffffffffffffffffffffffffffffffffffffff1673ffffffffffffffffffffffffffffffffffffffff16815260200190815260200160002060008282540192505081905550565b60008060003373ffffffffffffffffffffffffffffffffffffffff1673ffffffffffffffffffffffffffffffffffffffff16815260200190815260200160002054905090565b60008060003373ffffffffffffffffffffffffffffffffffffffff1673ffffffffffffffffffffffffffffffffffffffff168152602001908152602001600020541161083357600080fd5b60008060003373ffffffffffffffffffffffffffffffffffffffff1673ffffffffffffffffffffffffffffffffffffffff16815260200190815260200160002054905060008060003373ffffffffffffffffffffffffffffffffffffffff1673ffffffffffffffffffffffffffffffffffffffff168152602001908152602001600020819055503373ffffffffffffffffffffffffffffffffffffffff166108fc829081150290604051600060405180830381858888f19350505050158015610900573d6000803e3d6000fd5b503373ffffffffffffffffffffffffffffffffffffffff167f42b2a4ad2d4bdf57e819ccd3c6ce6d0a8d6d20b5d3dbf94ef2b05c42f523c610826040518082815260200191505060405180910390a250565b60006002428161095e57fe5b0690509056fe506c65617365206265742077697468696e207468652073657420706172616d6574657273536f7272792c20776520646f6e2774206861766520656e6f7567682066756e647320746f20636f766572207468617421a265627a7a72315820305cf9ee2178cfd015706a936bfd184cdd6e0619c517583969aba7c5750b0f2064736f6c63430005100032",
  "source": "pragma solidity ^0.5.0;\n\ncontract Coinflip{\n    \n    mapping(address => uint) public playerWinnings;\n    \n    event userWithdrawal(address indexed _from, uint _value);\n    event ownerWithdrawAll(address indexed _from, uint _value);\n    event userWin(address indexed _from, uint _value);\n\n    constructor() public payable onlyOwner{\n        owner = msg.sender;\n        contractBalance = msg.value;\n    }\n\n    address payable public owner = msg.sender;\n    uint public contractBalance;\n    \n    modifier onlyOwner() {\n        require(msg.sender == owner);\n        _;\n    }\n    \n    \n    function flip(uint headsTails) public payable {\n        require(headsTails == 0 || headsTails == 1, \"Please choose heads or tails\");\n        require(msg.value >= .001 ether && msg.value <= 10 ether, \"Please bet within the set parameters\");\n        require(msg.value < contractBalance, \"Sorry, we don't have enough funds to cover that!\");\n        uint winAmount = msg.value * 2;\n        uint randOutcome = random();\n        random();\n        if(headsTails == randOutcome){\n            contractBalance -= msg.value;\n            playerWinnings[msg.sender] += winAmount;\n            emit userWin(msg.sender, winAmount);\n        } else {\n            contractBalance += msg.value;\n        }\n    }\n    \n    function random() private view returns(uint) {\n        return (now % 2);\n    }\n    \n    \n    function withdrawAll() public onlyOwner {\n        require(msg.sender == owner, \"Nice try, you're not the owner\");\n        require(contractBalance > 0, \"Nothing to withdraw\");\n        uint total = contractBalance;\n        contractBalance = 0;\n        owner.transfer(total);\n        emit ownerWithdrawAll(msg.sender, total);\n    }\n    \n    function withdrawWinnings() public {\n        require(playerWinnings[msg.sender] > 0);\n        uint balance = playerWinnings[msg.sender];\n        playerWinnings[msg.sender] = 0;\n        msg.sender.transfer(balance);\n        emit userWithdrawal(msg.sender, balance);\n        \n    }\n    \n    function winningsBalance() public view returns(uint) {\n        return playerWinnings[msg.sender];\n    }\n    \n    //fund contract post-deployment\n    function addFunds() public payable onlyOwner {\n        contractBalance += msg.value;\n    }\n    \n    //fund user winnings balance \n    //TESTING ONLY\n    function fundWinnings() public payable {\n        playerWinnings[msg.sender] += msg.value;\n    }\n\n}",
  "sourcePath": "/Users/andrewfleming/Documents/ethereum-course-advanced/coinflip-react/coinflip/src/contracts/Coinflip.sol",
  "compiler": {
    "name": "solc",
    "version": "0.5.16+commit.9c3226ce.Emscripten.clang"
  },
  "schemaVersion": "3.2.3",
  "updatedAt": "2020-09-11T17:17:28.221Z",
  "networkType": "ethereum",
  "devdoc": {
    "methods": {}
  },
  "userdoc": {
    "methods": {}
  }
}